:020000040000FA
:041000000DEF11F0EF
:08100800056ED8CF06F0E0CF21
:1010100007F00001E9CF0DF0EACF08F0E1CF09F0C9
:10102000E2CF0AF0D9CF0BF0DACF0CF0F3CF14F007
:10103000F4CF15F0FACF16F000C00FF001C010F099
:1010400002C011F003C012F004C013F0F2A82CEF9C
:1010500008F0F2B2BAEF0DF0A0AA32EF08F0A1BA90
:1010600085EF0DF00FC000F010C001F011C002F0CC
:1010700012C003F013C004F00E8E0DC0E9FF08C0CB
:10108000EAFF09C0E1FF0AC0E2FF0BC0D9FF0CC0B4
:10109000DAFF14C0F3FF15C0F4FF16C0FAFF0550C5
:1010A00007C0E0FF06C0D8FF1000F76ABA0FF66E5F
:1010B000100EF7220900F550120004010000000094
:1010C000000000000000000000000DAE03D0F2CFD1
:1010D0000EF0F29EF76AEC0FF66E100EF722090082
:1010E000F5500DAE02D00EBEF28E12004000400050
:1010F00000000000000000000000000000000000F0
:10110000000000000000000000000000F76A1C0F53
:10111000F66E110EF7220900F550120009022000A8
:1011200001010080320904000002FFFFFF000705F3
:10113000810240000107050102400001F76A4C0FDF
:10114000F66E110EF7220900F55012000100F76A41
:101150005E0FF66E110EF7220900F5501200120113
:1011600010010000004062040400000101020001BF
:10117000F76A800FF66E110EF7220900F550120083
:1011800000040C00F76A940FF66E110EF7220900A6
:10119000F550120004030904080343004300530000
:1011A00030034D0079002000420075006C006B0098
:1011B00020005400720061006E007300660065003C
:1011C000720020004400650076006900630065003D
:1011D0006D926994689490EF0DF06A6A689299EF45
:1011E0000DF05A6A5A520AE1036A5A50260FE96E04
:1011F000000E0320EA6EEF6A5A2AF4D71C6A010E29
:101200001D6E1B6A000C010E636F63510F080EE325
:10121000700E6325016E0F0E036ED8B0032A01C055
:10122000E9FF03C0EAFFEF6A632BEFD7206A1F6A6A
:10123000000C400E0401016F050E036F026B880E57
:10124000006F046B050E076F400E066F0001000C67
:101250006A6A686A9F0E6B6E390E696E6E6AC1DFCC
:10126000D2DF160E706E68A602D06896FCD76D9815
:10127000E0DF030E216E9FEF0DF0698468986D82A8
:10128000A5EF0DF0689CABEF0DF070A002D0D1DFA0
:101290007090689AB1EF0DF05EC022F0000CFF0E66
:1012A000226E000C5C6A255235E05C503F0832E348
:1012B0001E5005E0020A0DE0010A15E01ED0036A87
:1012C0002450F2CF5EF0F29E21DF5EBEF28E5D6EA4
:1012D00014D0036A2450F2CF5EF0F29E53DF5EBE5C
:1012E000F28E5D6E0AD0036A2450F2CF5EF0F29E59
:1012F0002EDF5EBEF28E5D6E00D0242A25065C5085
:101300005C2A036A400FE96E050E0320EA6E5DC099
:10131000EFFFC9D7255204E15C50400801E01B6A89
:101320005CC05EF0B9DF000C246A1E6A050103513F
:10133000010A000105E0030A08E0010A09E01FD0E4
:10134000120E256E030E1E6E1CD0200E256E19D0B7
:10135000020E1E6E036A05010251F2CF5BF0F29E8F
:10136000000106DF5BBEF28E246E036A2450F2CFCA
:101370005BF0F29E07DF5BBEF28E256E02D08FDF40
:101380000CD00501075305E12550065D02E206C5B4
:1013900025F0010E1B6E000185DFE7EF0AF05B52BE
:1013A00004E1040E216E2FDFC1D0050E216E5E6EAA
:1013B000800E5D6E010E5C6E5C500F08D8A0B6D03A
:1013C0005F6A036A5C50F2CF63F0F29E6EDE63BF29
:1013D000F28E000A51E0040E5F6ED8905C34036A0E
:1013E000F2CF63F0F29E71DE0900F5CF03F063BF28
:1013F000F28E606F03C061F05C50080DF350010F76
:10140000016E040E036ED8B0032A01C0E9FF03C0C9
:10141000EAFF60C0EFFF5C50080DF350020F016E51
:10142000040E036ED8B0032A01C0E9FF03C0EAFF2F
:101430005EC0ECFFED525DC0EFFFD8905C34036AF4
:10144000F2CF63F0F29E41DE0900F5CF03F063BFF7
:10145000F28E5D2603505E22880E626F61B162815A
:1014600061B362835C50080DF3CF01F0040E01C03C
:10147000E9FFEA6E62C0EFFF036A5C50F2CF63F0EF
:10148000F29E13DE63BFF28E000A31E05F825C5091
:10149000080DF350060F016E040E036ED8B0032A38
:1014A00001C0E9FF03C0EAFF5EC0ECFFED525DC082
:1014B000EFFFD8905C34036AF2CF63F0F29E05DE52
:1014C0000900F5CF03F063BFF28E5D2603505E2264
:1014D0005C50080DF350040F016E040E036ED8B07B
:1014E000032A01C0E9FF03C0EAFF400EEF6E5F5020
:1014F000060802E10E0E5F6E036A5C50F2CF63F0E5
:10150000F29ED3DD63BFF28E020801E05F88700EA9
:101510005C24016E0F0E036ED8B0032A01C0E9FFF0
:1015200003C0EAFF5FC0EFFF5C2A46D7E1EF0AF095
:101530000501015100010DE0010A14E0020A1EE05C
:10154000060A27E0030A2CE00E0A2BE0010A2FE02E
:101550003CD01DC040F50501416B020E5E6E0001DE
:101560009BDE35D00501022D06D0010E1D165E6AE8
:10157000000192DE02D0000192DE29D00501022D89
:1015800005D01D825E6A000187DE02D0000187DE81
:101590001ED0020E1B6E02C523F05E6A7DDE17D0E0
:1015A000C3D61CC040F5010E5E6E76DE10D005017C
:1015B0000251010808E302C51CF002C55BF00001FE
:1015C000EED65E6A69DE000102D069DE00D00CEF63
:1015D0000CF01CC05BF005010151000105E00A0A96
:1015E0000BE0010A2BE03CD00501406B416B020E81
:1015F0005E6E000151DE36D05B521EE0010E5B5C78
:10160000036AF2CF5DF0F29E99DD5DBEF28E016E4F
:101610000501045DD8A002D000010ED0036A045178
:10162000260FE96E000E0320EA6EEFCF40F5010EA3
:101630005E6E000131DE01D032DE14D05B520EE06E
:10164000036A05010451260FE96E000E0320EA6EBD
:1016500002C5EFFF5E6A00011FDE01D020DE02D06E
:101660001EDE00D00CEF0CF05BAE5C905BBE5C80CD
:101670005B9E5CA010D0036A5B50F2CF5DF0F29EDF
:1016800014DD5DBEF28E000A02E1000E01D0010EF3
:10169000016E10D00FD0036A5B50F2CF5DF0F29E66
:1016A00004DD5DBEF28E000A02E1000E01D0010EE3
:1016B000016E00D0CFEF0BF05BAE5C905BBE5C8048
:1016C0005B9E5CA010D05B50080DF350040F016EC0
:1016D000040E036ED8B0032A01C0E9FF03C0EAFF7D
:1016E000880EEF6E09D05B50080DF3CF01F0040EA9
:1016F00001C0E9FFEA6EEF6ADEEF0BF05BAE5C90D3
:101700005BBE5C805B9E5CA010D05B50080DF3500C
:10171000040F016E040E036ED8B0032A01C0E9FF66
:1017200003C0EAFF840EEF6E0AD05B50080DF3CFC2
:1017300001F0040E01C0E9FFEA6E840EEF6EE4EFE3
:101740000BF05BAE5C905BBE5C805B9E5CA010D0DF
:101750005B50080DF350040F016E040E036ED8B0F9
:10176000032A01C0E9FF03C0EAFFEFCF5DF00AD012
:101770005B50080DF3CF01F0040E01C0E9FFEA6EE3
:10178000EFCF5DF05DAE02D05DB402D0000E01D0AF
:10179000010E016EEEEF0BF004C55BF065D7015250
:1017A00029E005010151010A000105E0020A09E0F2
:1017B000030A0DE01DD004C55BF07ED75E6A6CDDC8
:1017C00019D004C55BF09AD75E6A66DD13D00501B7
:1017D000406B416B04C55BF00001B3D7015204E0DC
:1017E000010E0501406F0001020E5E6E55DD02D054
:1017F00056DD00D00CEF0CF01B6A050100517F0B89
:10180000000105E0010A04E0030A03E003D090D6DA
:10181000E0D6C2D744DD00D030EF0DF05B50080DAC
:10182000F3CF01F0040E01C0E9FFEA6EEFCF5DF0E7
:101830005C50020806E15DAC02D05C6A02D0010E89
:101840005C6E5C50030812E1840E5D6E5B50080D07
:10185000F350040F016E040E036ED8B0032A01C0CA
:10186000E9FF03C0EAFF840EEF6E09D05C2C03D0C1
:10187000C80E5D6E04D05C5202E1880E5D6E036A94
:10188000010E026E5B50006E05E0D8900236033602
:10189000002EFBD70250FF0A006EFF0E031A005005
:1018A0001F1603502016D8905B34036AF2CF60F005
:1018B000F29E0BDC0900F5CF03F060BFF28E5E6E86
:1018C00003C05FF05B50080DF350010F016E040E72
:1018D000036ED8B0032A01C0E9FF03C0EAFF5EC06F
:1018E000EFFF5FB05D805FB25D825B50080DF3CFAC
:1018F00001F0040E01C0E9FFEA6E5DC0EFFF000CCD
:101900005B50080DF350040F016E040E036ED8B047
:10191000032A01C0E9FF03C0EAFFEFCF5FF05FBE1B
:101920005BD05B50080DF350050F016E040E036E83
:10193000D8B0032A01C0E9FF03C0EAFF5CC0EFFF93
:101940005E50020816E15B50080DF350040F016E63
:10195000040E036ED8B0032A01C0E9FF03C0EAFFFA
:10196000EFCF5FF05FAC02D05E6A02D0010E5E6E18
:1019700013D05E50040810E15B50080DF3CF01F066
:10198000040E01C0E9FFEA6EEFCF5FF05FAC03D059
:10199000010E5E6E01D05E6A5E2C03D0C80E5F6ED3
:1019A00004D05E5202E1880E5F6E5DB05F805DB272
:1019B0005F825B50080DF350040F016E040E036E3E
:1019C000D8B0032A01C0E9FF03C0EAFF5FC0EFFF00
:1019D000010E016E03D000D0000E016E000C5B52B0
:1019E00002E127DC0FD0036A010E026E5B50006E2D
:1019F00005E0D89002360336002EFBD702501F12A6
:101A000003502012000C5CC06EFF5C5203E0040E19
:101A1000216E02D0020E216E13EF0DF01C6A1B6ABC
:101A200023C05CF0F0D71FEF0DF05B5208E11B2CD8
:101A300002D038DC04D01B50020801E1EFD7000CC3
:101A40006C305A6E5A325A321F0E5A166C523BE1A3
:101A5000040100513C0B34081BE1046B0001CCD69F
:101A6000223C05D05B6A030E5C6ED8DE0ED05B6A4A
:101A7000020E5C6ED3DE2250FE0807E05B6A5D6AF0
:101A800022C05CF0040E5E6E3BDF6D9819D004013D
:101A900000513C0B040815E15B6A0001A0DF5B6AA2
:101AA000020E5C6EBBDE2250FE080AE0223C01D032
:101AB00007D05B6A5D6A22C05CF0010E5E6E20DFBB
:101AC000040120D000016C50040812E1FF0E226EC8
:101AD0005B6AABDF223C01D008D05B6A5D6A22C042
:101AE0005CF0020E5E6E0CDF02D019EC09F009D03A
:101AF0006CB404D05AC05BF072DF03D05AC05BF004
:101B000094DF04010001B6EF0DF0215201E12FD066
:101B100068522DE068A404D069A402D0E8EF08F070
:101B20006DA201D024D068A204D069A202D0EDEF4A
:101B300008F068A004D069A002D028EF09F068A8D6
:101B400004D069A802D03DEF09F068AC04D069ACBC
:101B500002D042EF09F068AA04D069AA02D045EF8A
:101B600009F068A604D069A602D06AD76896A19A3F
:101B700032EF08F0010E2C6EF29232EF08F047C0FF
:101B800049F046C048F048C0E9FF49C0EAFF45C0F7
:101B9000ECFFED5244C0EFFF020E4824E96E000E48
:101BA0004920EA6EEC6AED52EF6A48C001F049C084
:101BB00002F07AEF0EF0020E3C24E96E000E3D209A
:101BC000EA6EECCF41F0ED52EFCF40F040520CE125
:101BD00041520AE1020E3E24E96E000E3F20EA6EF9
:101BE000EC6AED52EF6A1BD0020E3E24016E000E2D
:101BF0003F20036E416E020E3C24E96E000E3D2034
:101C0000EA6EECCF03F0ED52EFCF42F041C0EAFFB5
:101C100001C0E9FF03C0ECFFED5242C0EFFF020E2E
:101C20003C24E96E000E3D20EA6E3FC0ECFFED5211
:101C30003EC0EFFF87EF0EF03E50E96E3FC0EAFF77
:101C400041C0ECFFED5240C0EFFF000C1AC037F06E
:101C500019C036F0365203E13752D8B481D036C0BD
:101C6000E9FF37C0EAFFECCF3DF0ED52EFCF3CF09B
:101C70003DBE68D036C0E9FF37C0EAFFECCF3EF08A
:101C8000ED52EFCF3DF03E5203E135503D5C5AE35B
:101C900036C0E9FF37C0EAFFECCF03F0ED52EFCFDB
:101CA0003AF003C03BF0040E35243B5203E13A5CAA
:101CB0003BE03AE335503A5C3C6E000E3B583D6EDB
:101CC000040E3C5C3E6E000E3D583F6E040E362402
:101CD000406E000E3720416E35504024426E000E9B
:101CE0004120436E3FC045F03EC044F0476E42C0C5
:101CF00046F045D702C039F001C038F037C03DF09A
:101D000036C03CF039C03FF038C03EF054D735C043
:101D10003CF0800E3D6E37C03FF036C03EF0416E65
:101D200035C040F089DF0DD03AC03CF0800E3B2436
:101D30003D6E37C03FF036C03EF0416E3AC040F0D5
:101D40007BDF0ED0020E3624E96E000E3720EA6EDD
:101D5000ECCF03F0ED52EFCF36F003C037F07AD777
:101D6000365207E1375205E1000E016E026E09D0CE
:101D700008D0040E3624016E000E3720036E026E6A
:101D800000D0000C6D6A696A080E6F6E94503009BD
:101D9000946E216A186AF2BE188EF29EF1EC08F079
:101DA00018BEF28E206A1F6AFAEF0EF0186AF2BEB1
:101DB000188EF29EF1EC08F018BEF28E6D6A140EC9
:101DC0006F6E696A6D86010E216EEAEF0EF06DB6D8
:101DD00001D0ECD7212C0BD06DBA09D0686A696AA2
:101DE000A08AC00EF212110E696E020E216EFBEF78
:101DF0000EF0C8D7ECD721500208FCE170EF11F0CB
:101E0000526A536A010E546EDA6AD96A576A4A0EE8
:101E1000566EEA6A4E0EE96E57C0E2FF56C0E1FF09
:101E200054C055F0D890E550EE02F3505222F450D1
:101E30005322552EF7D752C0DEFF53C052F0536ADB
:101E4000D8B0532A562AD8B4572A542A54500508D1
:101E5000E0E1000C4850080DF350040F016E040E31
:101E6000036ED8B0032A01C0E9FF03C0EAFFEFCF39
:101E700050F050BE45D04850080DF350060F016E8B
:101E8000040E036ED8B0032A01C0E9FF03C0EAFFC5
:101E9000ECCF03F0ED52EFCF51F003C052F04F6A98
:101EA0004E6A4F504C5C1AE303E14B504E5C16E215
:101EB00049C0E9FF4AC0EAFFEFCF55F052C0EAFF40
:101EC00051C0E9FF55C0EFFF512AD8B4522A492A20
:101ED000D8B44A2A4E2AD8B44F2AE3D7186AF2BE99
:101EE000188EF29E48C05BF04CC05DF04BC05CF0B9
:101EF0004DC05EF005DD18BEF28E015003D000D05B
:101F0000000E016E000C3B6A3C6AD8903534036ABF
:101F1000F2CF46F0F29E65EC08F00900F5CF03F031
:101F200046BEF28E406E03C041F03C50395CD8A0F2
:101F30006BD003E138503B5C67E2496A486A476A04
:101F40003AC046F049C04DF048C04CF047C04BF095
:101F50003AC04AF0516A506A030E4F6EE80E4E6E58
:101F60004FDF03C045F002C044F001C043F000C0A1
:101F700042F03B50385C466E3C503958476E4150F9
:101F8000475C09E303E14650405C05E241C03FF095
:101F900040C03EF006D03B50385C3E6E3C50395855
:101FA0003F6E3B503624466E3C503720476E35C05E
:101FB00048F04A6E46C049F03FC04CF03EC04BF07E
:101FC000020E4D6E47DF01B002D03D9001D03D8042
:101FD0003DB00BD000D000D00000FF0E4226D8A0AC
:101FE0004326D8A04426D8A045263DB008D042526A
:101FF000D8E14352D6E14452D4E14552D2E14050B7
:102000003B2641503C2291D738503B5C44E139504B
:102010003C5C41E1496A486A476A3AC046F049C0B7
:102020004DF048C04CF047C04BF03AC04AF0516AFE
:10203000506A030E4F6EE80E4E6EE2DE03C045F0AE
:1020400002C044F001C043F000C042F035C048F087
:102050004A6A496A4C6A4B6A020E4D6EFBDE01B059
:1020600002D03D9001D03D803DB00BD000D000D0DB
:102070000000FF0E4226D8A04326D8A04426D8A0B0
:1020800045263DB008D04252E1E14352DFE14452DF
:10209000DDE14552DBE1000E3DB0010E016E000CAA
:1020A0003A50080DF350020F016E040E036ED8B0C3
:1020B000032A01C0E9FF03C0EAFFECCF03F0ED52B1
:1020C000EFCF3FF003C040F03A50080DF350010F3E
:1020D000016E040E036ED8B0032A01C0E9FF03C0ED
:1020E000EAFFEF50036A426E03C043F03A50080D16
:1020F000F3CF01F0040E01C0E9FFEA6EEFCF41F02B
:1021000041B0438041B2438243503E5C08E303E167
:102110003D50425C04E243C03EF042C03DF0436AA1
:10212000426A43503E5C1AE303E13D50425C16E2D2
:102130003FC0E9FF40C0EAFFEFCF46F03CC0EAFFF6
:102140003BC0E9FF46C0EFFF3B2AD8B43C2A3F2AF8
:10215000D8B4402A422AD8B4432AE3D73DC001F07C
:102160003EC002F0BFEF10F035C03AF037C03CF08F
:1021700036C03BF039C03EF038C03DF091D702C0C8
:1021800039F001C038F0186AF2BE188EF29E35C0E0
:102190005BF0020E5C6E0EEC0CF018BEF28E38C0D6
:1021A00001F039C002F08BEF11F0EA6A350EE96EEA
:1021B000EF500DE0060E016E006A002EFED7012ED4
:1021C000FBD77B0E006E002EFED7EF2EF3D7000C50
:1021D00093948A84140E356EE8DF93948A94140ED7
:1021E000356EE3DF000C0A0E356EDFDF010E2F24A3
:1021F000E96E000E3020EA6E010EEF6E356E30C0D3
:1022000037F02FC036F0396A190E386E3A6A7BDE25
:102210000A0E356ECADFC7EF11F0F86AD09E0D8E38
:102220001A6A660E196E030E676F960E666F060EBB
:10223000696F010E686F0601026FFB0E016F046B80
:10224000036B0001EA6AE96AB886080EAF6E020EF7
:10225000B06EA60EAC6E900EAB6EC150C00B0F09E7
:10226000C16E070EB46E216A256A400E356EEEDC33
:1022700002C02EF001C02DF0400E356EE7DC02C02A
:1022800030F001C02FF0C150C00B0E09C16EC080EC
:10229000C082C084C08EC2809698C69A949E938055
:1022A0009392010EC66E000EC76ED190800ED56E51
:1022B000CD6A000ECA6E000ECB6EB150480BB16EE7
:1022C000070EB46E9250100E006E002EFED7000066
:1022D000B450A19CB56AF19CF288C00EF21289D567
:1022E0001C5256E0010E356E30C037F02FC036F06C
:1022F000396A190E386E3A6A06DE959C8C8C1FA2DC
:1023000046D0010E356E2EC037F02DC036F0396A3A
:10231000080E386E29D7010E2D24E96E000E2E20EE
:10232000EA6EEFCF27F0020E2D24E96E000E2E206C
:10233000EA6EEFCF28F0030E2D24E96E000E2E205A
:10234000EA6EEFCF29F0040E2D24E96E000E2E2048
:10235000EA6EEFCF2AF0050E2D24E96E000E2E2036
:10236000EA6EEFCF2BF02A2C03D093968A860ED0FC
:102370002A50020807E12C6A2BDF2C2C01D001D057
:10238000FBD704D02A50030801E122DF2CD7AAD7BB
:04239000A7D70300C8
:020000040030CA
:0E0000003FC03F0E0087E5000FC00FE00F402D
:00000001FF
;PIC18F4550
